:1000000055C1000082C1000080C100007EC1000017
:100010007CC100007AC1000078C1000076C10000F8
:1000200074C1000072C1000070C100006EC1000008
:100030006CC100006AC1000068C1000066C1000018
:1000400064C1000062C1000060C100005EC1000028
:100050005CC100005AC1000058C1000021C400006A
:1000600054C1000052C1000050C100004EC1000048
:100070004CC100004AC1000048C1000046C1000058
:1000800059C4000042C1000040C100003EC1000050
:100090003CC100003AC1000038C1000036C1000078
:1000A00034C1000032C1000030C100002EC1000088
:1000B0002CC100002AC1000028C1000026C1000098
:1000C00024C1000022C1000020C100001EC10000A8
:1000D0001CC100001AC1000018C1000016C10000B8
:1000E00014C100006364696E6F70737578585B00AB
:1000F00000000A0B02090C0D0E08070304010000A2
:1001000000000000000000000000000000000000EF
:1001100000000000000000000000000012111000AC
:1001200000000000000000000000000000000000CF
:10013000000000000000303000303100303200306C
:10014000330030340030350030360030370030387E
:1001500000303900313000313100313200313300AC
:10016000313400313500313600313700313800315B
:100170003900323000323100323200323300323452
:100180000032350032360032370032380032390062
:100190003330003331003332003333003334003333
:1001A000350033360033370033380033390034300C
:1001B000003431003432003433003434003435003C
:1001C00034360034370034380034390035300035E7
:1001D00031003532003533003534003535003536E1
:1001E0000035370035380035390000002200250081
:1001F00028002B002E003100340002010000050110
:1002000008010B0100002100240027002A002D0016
:100210003000330001010000040107010A01050557
:100220000505070508080808020202020A0A08086C
:10023000040404040101010101010101030303039A
:1002400003030303040707070C0C0C0C0C0C0C0C29
:100250000202020206060606060606060B0B0B0B3A
:100260000B0B0B0B0102102020080810204010205F
:10027000408002010201080402010102040810206A
:100280004080804020100804020180040201804068
:1002900020100804020108040201010204081020D1
:1002A00040800102040810204080CA0711241FBEAC
:1002B000CFEFD1E2DEBFCDBF00E00CBF12E0A0E087
:1002C000B2E0E8E4F6E100E00BBF02C007900D9257
:1002D000A231B107D9F722E0A2E1B2E001C01D923C
:1002E000A335B207E1F711E0C6E5D1E000E005C0B3
:1002F00021970109802FFE016AD6C535D10780E01C
:100300000807B1F7A7D30C94220B7ACE90E0FC013A
:10031000EC59FD4F2491825E9D4FFC01849188230E
:1003200099F090E0880F991FFC01EC5FFD4FA591BB
:10033000B491FC01E651FE4F859194918FB7F894EA
:10034000EC91E22BEC938FBF0895AF92BF92CF92C6
:10035000DF92EF92FF920F931F93CF93DF936C0185
:100360007B018B01040F151FEB015E01AE18BF0866
:10037000C017D10759F06991D601ED91FC91019018
:10038000F081E02DC6011995892B79F7C501DF9120
:10039000CF911F910F91FF90EF90DF90CF90BF9082
:1003A000AF900895282F30E0F901E051FF4F94916C
:1003B000F901EC59FD4F4491225E3D4FF901249122
:1003C000222309F434C0992309F191509231F0F4B9
:1003D000E92FF0E08827E151FE4F8F4FF8C520024A
:1003E0002402010218021C02060227022D02310219
:1003F00037023B023F024502490206024D02530208
:100400005702809180008F7780938000E22FF0E088
:10041000EE0FFF1FE651FE4FA591B4918FB7F894F0
:10042000EC91611148C040954E234C938FBF0895C5
:10043000809180008F7DE8CF80918000877FE4CF1E
:1004400084B58F7784BDE2CF84B58F7DFBCF80915B
:10045000B0008F778093B000D9CF8091B0008F7DAE
:10046000F9CF809190008F7780939000CFCF8091CB
:1004700090008F7DF9CF80919000877FF5CF80919C
:10048000A0008F778093A000C1CF8091A0008F7DC6
:10049000F9CF8091A000877FF5CF809120018F77E1
:1004A00080932001B3CF809120018F7DF9CF80917F
:1004B0002001877FF5CF4E2BB8CF3FB7F8948091BE
:1004C000190290911A02A0911B02B0911C0226B54C
:1004D000A89B05C02F3F19F00196A11DB11D3FBF7C
:1004E000BA2FA92F982F8827BC01CD01620F711D4B
:1004F000811D911D42E0660F771F881F991F4A9545
:10050000D1F708958F929F92AF92BF92CF92DF92D0
:10051000EF92FF924B015C01D0DF6B017C01CDDFDC
:100520006C197D098E099F09683E7340810591050C
:10053000B0F321E0821A9108A108B10888EEC80E34
:1005400083E0D81EE11CF11C81149104A104B104C4
:1005500031F7FF90EF90DF90CF90BF90AF909F90DA
:100560008F900895089590E080E00895CF93DF93F1
:10057000EC0160E08E8116DF61E08E8113DF60E0C8
:100580008E8110DF8BE891E00197F1F7DF91CF9139
:100590000895CF92DF92EF92FF920F931F93CF9324
:1005A000DF936C017C0187E0E80EF11CD0E0C0E035
:1005B000062F10E0B8010C2E02C0759567950A94BD
:1005C000E2F76170F70181917F01ECDE2196C43082
:1005D000D10581F7C601DF91CF911F910F91FF9057
:1005E000EF90DF90CF90C2CFCF92DF92EF92FF9249
:1005F0000F931F93CF93DF93EC01F62E642F8C8122
:10060000D1DE8D818F3F11F060E0CCDE0F2D10E048
:100610008F8584FF23C06E0187E0C80ED11CF12CAA
:10062000E12CB8010E2C02C0759567950A94E2F78B
:100630006170F60181916F01B5DEFFEFEF1AFF0ADD
:1006400088E0E816F10469F7CE01DF91CF911F91A0
:100650000F91FF90EF90DF90CF9088CFB80184E0AA
:10066000759567958A95E1F7CE0193DF6F2DCE01E1
:10067000DF91CF911F910F91FF90EF90DF90CF907E
:1006800088CF40E0682F8BE392E0AECFCF93DF932B
:10069000823029F490914A02986090934A028093A4
:1006A0004E0210924F0280E48093500280E18093CA
:1006B000510280E58093520280913F0227DE8091B3
:1006C00040028F3F09F022DE809141021FDECBE322
:1006D000D2E09E012B53324080914A0284FD09C032
:1006E00084E090E021962817390734F48E810EDEDD
:1006F000F0CF88E090E0F6CF8BE39DE00197F1F733
:1007000060E080913F024EDE60E0809141024ADE6F
:10071000809140028F3F11F060E044DE80914A02F8
:1007200084FD31C063E08BE392E033DFCBE4D6E4B9
:10073000CE010197F1F763E08BE392E02ADF219786
:10074000F1F763E08BE392E024DF83E592E0019729
:10075000F1F762E08BE392E01CDF80914A02806255
:1007600090DF84E080934B028CE08BDF81E089DFB7
:100770008BE39FE10197F1F782E080934C0286E0E2
:10078000DF91CF917ECF80627CDF8BE496E401978E
:10079000F1F780914A02806274DF83E592E001976D
:1007A000F1F780914A0280626CDFD7CF643008F0A5
:1007B00063E090914E02691710F06FEF690FE62F1A
:1007C000F0E0E55CFD4F9489890F80685ACF81E0A5
:1007D00058DF8BE39FE10197F1F71092390283E034
:1007E00080930202109234021092130210921202AD
:1007F00061E085E1D7DD6CE271E080E090E082DECF
:1008000060E085E1CFCD41E0EFDE81E090E008954A
:100810000F931F93CF93DF93EC018B01FC01649145
:1008200041E08BE392E0E0DE0130110559F0FE017A
:100830003196649141E08BE392E0DF91CF911F917B
:100840000F91D2CEDF91CF911F910F910895682F14
:1008500083E0ACDF61E070E08AEE91E0D9DF61E037
:1008600070E08AEE91E0D4DF6AE38BE392E0CBDFC5
:1008700061E070E08AEE91E0CBDF61E070E08AEE4B
:1008800091E0C6DF6AE38BE392E0BDDF61E070E0F8
:100890008AEE91E0BDDF61E070E08AEE91E0B8CFD2
:1008A0001F920F920FB60F9211242F933F938F93A5
:1008B0009F93AF93BF938091150290911602A091E0
:1008C0001702B09118023091140223E0230F2D3744
:1008D00058F50196A11DB11D2093140280931502B5
:1008E00090931602A0931702B093180280911902F8
:1008F00090911A02A0911B02B0911C020196A11DB9
:10090000B11D8093190290931A02A0931B02B09319
:100910001C02BF91AF919F918F913F912F910F90AA
:100920000FBE0F901F90189526E8230F0296A11D69
:10093000B11DD2CF1F920F920FB60F9211240BB69A
:100940000F922F933F934F935F936F937F938F9368
:100950009F93AF93BF93EF93FF93809121028823DE
:1009600039F0809129028823C9F1815080932902AE
:1009700080912002882341F080912202882309F48B
:100980004BC08150809322028091120290911302F9
:10099000009789F00196909313028093120261E010
:1009A00080FF07C04E9721F410921302109212029A
:1009B00060E085E1F7DCFF91EF91BF91AF919F91EE
:1009C0008F917F916F915F914F913F912F910F90F8
:1009D0000BBE0F900FBE0F901F9018958CE3809365
:1009E000290280912A02882321F0815080932A02D3
:1009F000BFCF80912B02882321F0815080932B025E
:100A0000B7CF1092210210923A0281E090E09093C9
:100A1000130280931202ACCF8CE380932202809168
:100A20002302882321F0815080932302ADCF80914F
:100A30002402882321F0815080932402A5CF1092B4
:100A400020021092380281E090E09093130280938C
:100A500012029ACF789484B5826084BD84B5816097
:100A600084BD85B5826085BD85B5816085BD809179
:100A70006E00816080936E001092810080918100F1
:100A800082608093810080918100816080938100E9
:100A9000809180008160809380008091B1008460AB
:100AA0008093B1008091B00081608093B00080910C
:100AB0009100826080939100809191008160809389
:100AC0009100809190008160809390008091A100BE
:100AD00082608093A1008091A10081608093A10039
:100AE0008091A00081608093A000809121018260AC
:100AF0008093210180912101816080932101809167
:100B0000200181608093200180917A00846080932D
:100B10007A0080917A00826080937A0080917A00D6
:100B2000816080937A0080917A00806880937A0057
:100B30001092C100F894109290008DE08093910083
:100B400082E08093710088E09DE390939900809308
:100B500098008FE080BB80EF81BB82E097DD7894C6
:100B600085E1D4DB60E085E11DDC10921F02CDE160
:100B7000D2E075E2E72E72E0F72E0FE012E0E7E236
:100B8000CE2EE2E0DE2EFCE2AF2EF2E0BF2EA0E0A1
:100B90008A2EA0E09A2E35E4632E44E4442E53E4DA
:100BA000352E62E4262E80913A02882309F493C000
:100BB00060E083E0FBDD80912B0223E0722E879DB5
:100BC000C001112462E070E08A5C9E4F21DE6AE37E
:100BD0008BE392E018DE80912A02879DC0011124E8
:100BE00062E070E08A5C9E4F13DE6AE38BE392E082
:100BF0000ADE80912902879DC001112462E070E025
:100C00008A5C9E4F05DE80913802882309F46BC010
:100C100061E083E0CBDD8091240293E0792E879D13
:100C2000C001112462E070E08A5C9E4FF1DD6AE34E
:100C30008BE392E0E8DD80912302879DC0011124BF
:100C400062E070E08A5C9E4FE3DD6AE38BE392E052
:100C5000DADD80912202879DC001112462E070E0FC
:100C60008A5C9E4FD5DD7090010221E08FB1721237
:100C7000B5C0803F09F47BC062E370E080E090E0A3
:100C800041DC10920102709200023EEF31BB91B341
:100C90008FB1981314C08DEF81BB91B38FB19813AE
:100CA0000EC08BEF81BB91B38FB1981308C087EF53
:100CB00081BB91B38FB1981302C010920002809152
:100CC0000002813009F051C08FB18E3EA1F481E362
:100CD0008093360247C080913902813009F493CF66
:100CE00080E0B5DD90CF80913902823009F4BBCF2E
:100CF00081E0ADDDB8CF8FB18E3D11F482E3E8CF56
:100D00008FB18E3B11F483E3E3CF8FB18D3E11F4AD
:100D100084E3DECF8FB18D3D11F485E3D9CF8FB160
:100D20008D3B11F486E3D4CF8FB18B3E11F487E372
:100D3000CFCF8FB18B3D11F488E3CACF8FB18B3BFE
:100D400011F489E3C5CF8FB1873D11F480E3C0CFA3
:100D50008FB18E3711F481E4BBCF8FB18D3739F568
:100D60002092360281E08093370220EF21BB8091F0
:100D700037028823A9F061E085E114DB1092370285
:100D8000709036027092350264E670E080E090E088
:100D9000B9DB60E085E106DB36E473122AC017DDBB
:100DA0008114910409F4FFCE0E940000F4CE8FB1AB
:100DB0008B3719F430923602D5CF8FB1873719F4BB
:100DC00040923602CFCF8FB1873B19F46092360242
:100DD000C9CF8FB1873E31F686E47ACF803F39F6AE
:100DE00068EC70E080E090E08DDB81E080930102B0
:100DF000BECF609139026150623008F08EC0E09140
:100E0000340281E08E0F80933402F0E0E25DFD4F0A
:100E1000708280910202853011F0883019F48F5F62
:100E2000809302028091020255245394580E5092EE
:100E30000202BCDC672D8BE392E0E5DC8AE08515DD
:100E400010F46092350280913502853409F0A8CF04
:100E500080912E0280931D0280912F0280931E02AA
:100E6000FF92EF921F930F93DF93CF93B8D08091AF
:100E7000300280931D028091310280931E02DF9226
:100E8000CF921F930F93DF93CF93A9D0809132021B
:100E900080931D028091330280931E02BF92AF9215
:100EA0001F930F93DF93CF939AD080912502909157
:100EB00026022DB73EB72E5E3F4F0FB6F8943EBFC9
:100EC0000FBE2DBF893191050CF069CF209127020B
:100ED000309128022D3331050CF061CF40912C0266
:100EE00050912D024D3351050CF059CF60913902CC
:100EF000613049F44093290220932A0280932B0207
:100F000060933A024CCF40932202209323028093B5
:100F1000240281E08093380242CF31E4731206C08C
:100F200081E08093390280E092DC3ACF82E478124B
:100F300005C082E08093390281E0F6CF23E472128B
:100F400013C080912102882359F010923A02109226
:100F5000290210922A0210922B021092210220CF15
:100F600081E0809321021CCF34E4731219CF809169
:100F70002002882359F01092380210922202109217
:100F8000230210922402109220020ACF81E0809363
:100F9000200206CFEBE3F2E01382128287E092E0B8
:100FA0009183808386E1848387E1858388E18683DA
:100FB00089E187838AE180878BE181878CE1828761
:100FC0001386148615861686178681E05FCBEE0F92
:100FD000FF1F881F8BBF0790F691E02D1994CF93C8
:100FE000DF93CDB7DEB72E970FB6F894DEBF0FBEF6
:100FF000CDBF85E08C838C899D899A838983AE01DE
:10100000485E5F4F6E897F89CE010196A6D12E96EC
:101010000FB6F894DEBF0FBECDBFDF91CF9108951C
:1010200020FD09C0FC0123FD05C022FF02C073831F
:10103000628351834083089544FD17C046FD1DC05F
:10104000DB01FC01AA0FBB1FEE1FFF1F1094D1F79D
:101050006A0F7B1F8E1F9F1F660F771F881F991FA8
:10106000620F711D811D911D089533E0660F771F7A
:10107000881F991F3150D1F7F3CF34E0F7CF0F938A
:101080001F93CF93DF938C01C80185D2EC0197FDAC
:1010900006C06ED2892BC1F7B801CE01B8D2CE01FD
:1010A000DF91CF911F910F9108958F929F92AF92F0
:1010B000BF92EF92FF920F931F93CF93DF938C0118
:1010C000D62F7A01B22E67D29C0133272B323105FD
:1010D00029F02D323105A1F46894B7F8D15061F4AC
:1010E00080E0DF91CF911F910F91FF90EF90BF9023
:1010F000AF909F908F900895C8014DD297FDF0CF8B
:10110000CB2DCD7F2B2D2073E9F48033D9F4AA2485
:10111000AA94AD0E79F0C8013ED297FD0BC0282FDE
:101120002F7D283559F4C264D25021F0C80133D242
:1011300097FF08C0812C912C54011AC0B6FE29C01B
:10114000C260DA2D812C912C540120ED280F28301B
:1011500018F1C4FD09C02A30F8F0C6FF05C02F7D84
:101160003FEE320F3630B8F0B80151D2C1FFB8CFE0
:10117000C7FF08C0B094A09490948094811C911CE7
:10118000A11CB11C2C2FB501A401C70149DF81E0CE
:10119000A8CFC261D6CF27504C2FC501B4014CDF78
:1011A0004B015C01C260D15019F3C801F4D197FF23
:1011B000CCCFDCCF7F928F929F92AF92BF92CF9293
:1011C000DF92EF92FF920F931F93CF93DF93CDB7F0
:1011D000DEB7A0970FB6F894DEBF0FBECDBF5C019F
:1011E000962E7A01CE0101966C0180E2F6011192F1
:1011F0008A95E9F7F501B381890130E020E0712C8F
:10120000812CA0E041E050E0F801B3FD8591B3FFEF
:101210008191982F8F01811117C010E000E0C80163
:10122000A0960FB6F894DEBF0FBECDBFDF91CF9171
:101230001F910F91FF90EF90DF90CF90BF90AF90F4
:101240009F908F907F9008958E3519F42115310568
:1012500041F1A21713064CF48D3549F18D3229F472
:10126000811006C0882483941DC0882009F462C0C0
:10127000E92FE695E695E695EC0DFD2DF11D892FFC
:101280008770BA0101C0660F8A95EAF78081682BE2
:101290006083791651F0971510F49F5FE9CF915054
:1012A000E7CFA1E02F5F3F4FAFCF812CFBCF88204E
:1012B00019F08E8180628E83AA2359F0F6019E0177
:1012C0002F5D3F4F8081809580833196E217F30731
:1012D000C9F788248394C5015ED197FD15C0E82F16
:1012E000E695E695E695EC0DFD2DF11D208130E0AB
:1012F000AC014770552702C0359527954A95E2F70E
:1013000020FD05C0B50183D1882069F086CFE114A6
:10131000F10429F0F7018083C70101967C019A94BA
:10132000812C9110D8CFE114F10409F478CFF701A2
:10133000108275CFE82FE695E695E695EC0DFD2D2C
:10134000F11D982F9770BA0101C0660F9A95EAF7C0
:101350009081692B6083782EA5CF5F926F927F92E8
:101360008F929F92AF92BF92CF92DF92EF92FF92B5
:101370000F931F93CF93DF936C01EB015A01FC0194
:1013800017821682512CF601E380FE01E3FC859161
:10139000E3FE8191182FEF018823C9F090E0E8D097
:1013A000892B19F0C6016BDEEECF153241F4FE0138
:1013B000E3FC1591E3FE1191EF01153259F4C601DA
:1013C000EAD097FD88C01817F1F2B60120D1852D1B
:1013D00090E085C000E01A3231F4E3FC1591E3FEA1
:1013E0001191EF0101E0F12C20ED210F2A3038F1AD
:1013F00001FF34C0FF2059F3183699F11C3609F467
:101400003AC0112321F3612F70E084EE90E0B8D050
:10141000892BE9F2912C812C00FD06C0F50180801A
:101420009180C50102965C011E3669F5F601468180
:10143000578170E060E0202FC401F2DDA4CF02608C
:101440006F2D70E090E080E040E2F6DDF62EFE01C8
:10145000E3FC1591E3FE1191EF01C6CFFF24FA944E
:10146000CBCFFE01E3FC1591E3FE1191EF0118369D
:1014700009F0C7CF08600460FE01E3FC1591E3FEAC
:101480001191EF01BECF1336B9F401FD02C0FF2464
:10149000F394C60180D097FD1EC08114910429F0F9
:1014A000F4018083C40101964C01FA94F110F1CF4C
:1014B00000FD69CF539467CF1B3509F59E01A40148
:1014C0006F2DC60177DEEC01892B91F7F601838140
:1014D000807309F47CCF8FEF9FEF511078CFDF91AD
:1014E000CF911F910F91FF90EF90DF90CF90BF9021
:1014F000AF909F908F907F906F905F900895C601FE
:10150000BEDD97FDE8CF1F3689F130F4143641F087
:10151000193639F0006405C01337B1F01537D1F72B
:101520000062202FA4016F2DC601BFDD8111C0CF45
:10153000CDCF8114910429F0F4016082C401019699
:101540004C01FA94FF2059F0C60125D03C0197FDCB
:1015500006C00ED0892B69F3B601C30158D081149F
:10156000910409F4A5CFF4011082A2CF0061D9CF74
:10157000911165C0803219F089508550D0F70895D7
:10158000FC010590061621F00020D9F7C00108954E
:101590003197CF010895CF93DF93EC012B8120FF8A
:1015A0001AC026FF0CC02F7B2B838E819F81019652
:1015B0009F838E838A8190E0DF91CF91089522FFEF
:1015C00018C0E881F9818081082E000C990B0097E2
:1015D00029F420622B838FEF9FEFEECF3196F983B2
:1015E000E8832E813F812F5F3F4F3F832E839927D2
:1015F000E3CFEA85FB85199597FFF3CF2B81019601
:1016000021F080E2822B8B83E6CF80E1FBCFFB01D0
:10161000238120FF11C026FD0FC08F3F980771F076
:1016200082832F7D206423832681378121503109D5
:1016300037832683992708958FEF9FEF0895992781
:0816400088270895F894FFCFFC
:10164800010103000000000304A501B302B2022552
:0216580064002C
:020000023000CC
:10E000000D9489F10D94B2F10D94B2F10D94B2F129
:10E010000D94B2F10D94B2F10D94B2F10D94B2F1F0
:10E020000D94B2F10D94B2F10D94B2F10D94B2F1E0
:10E030000D94B2F10D94B2F10D94B2F10D94B2F1D0
:10E040000D94B2F10D94B2F10D94B2F10D94B2F1C0
:10E050000D94B2F10D94B2F10D94B2F10D94B2F1B0
:10E060000D94B2F10D94B2F10D94B2F10D94B2F1A0
:10E070000D94B2F10D94B2F10D94B2F10D94B2F190
:10E080000D94B2F10D94B2F10D94B2F10D94B2F180
:10E090000D94B2F10D94B2F10D94B2F10D94B2F170
:10E0A0000D94B2F10D94B2F10D94B2F10D94B2F160
:10E0B0000D94B2F10D94B2F10D94B2F10D94B2F150
:10E0C0000D94B2F10D94B2F10D94B2F10D94B2F140
:10E0D0000D94B2F10D94B2F10D94B2F10D94B2F130
:10E0E0000D94B2F141546D656761323536300041AF
:10E0F000726475696E6F206578706C6F72657220DE
:10E1000073746B3530305632206279204D4C530099
:10E11000426F6F746C6F616465723E004875683F52
:10E1200000436F6D70696C6564206F6E203D200048
:10E130004350552054797065202020203D20005FF9
:10E140005F4156525F415243485F5F3D2000415658
:10E1500052204C696243205665723D20004743437C
:10E160002056657273696F6E203D20004350552024
:10E1700049442020202020203D20004C6F7720663D
:10E18000757365202020203D20004869676820665F
:10E190007573652020203D200045787420667573D6
:10E1A00065202020203D20004C6F636B2066757336
:10E1B000652020203D20004D617220203720323024
:10E1C000313300312E362E3800342E332E350056A2
:10E1D00023202020414444522020206F7020636F70
:10E1E00064652020202020696E73747275637469E1
:10E1F0006F6E2061646472202020496E74657272B3
:10E20000757074006E6F20766563746F7200726A49
:10E210006D702020006A6D70200057686174207056
:10E220006F72743A00506F7274206E6F7420737541
:10E2300070706F72746564004D7573742062652030
:10E2400061206C6574746572002000577269747483
:10E25000696E672045450052656164696E672045B7
:10E26000450045452065727220636E743D00504F35
:10E27000525400303D5A65726F2061646472003FF1
:10E280003D43505520737461747300403D454550C3
:10E29000524F4D207465737400423D426C696E6B41
:10E2A000204C454400453D44756D70204545505215
:10E2B0004F4D00463D44756D7020464C415348001B
:10E2C000483D48656C70004C3D4C69737420492F83
:10E2D0004F20506F72747300513D51756974005234
:10E2E0003D44756D702052414D00563D73686F7707
:10E2F00020696E7465727275707420566563746FF0
:10E30000727300593D506F727420626C696E6B00BD
:10E310002A0011241FBECFEFD1E2DEBFCDBF01E046
:10E320000CBF12E0A0E0B2E0EEE1FDEF03E00BBFB6
:10E3300002C007900D92A030B107D9F712E0A0E01B
:10E34000B2E001C01D92AE30B107E1F70F9460F367
:10E350000D948DFE01E20EBF0FEF0DBF11241FBE05
:10E360000D9460F30D9400F020E030E040ED57E0B4
:10E3700005C0FA013197F1F72F5F3F4F2817390792
:10E38000C0F308959C01260F311DC901A0E0B0E043
:10E390002F5F3F4FABBFFC018791882361F08093D3
:10E3A000C6008091C00086FFFCCF8091C0008064D1
:10E3B0008093C000EACF08958DE08093C6008091DD
:10E3C000C00086FFFCCF8091C00080648093C000B5
:10E3D0008AE08093C6008091C00086FFFCCF8091C8
:10E3E000C00080648093C00008950F94C2F10F9420
:10E3F000DCF10895FC019081992359F09093C600B7
:10E400008091C00086FFFCCF8091C0008064809323
:10E41000C0003196992379F70895282F982F929567
:10E420009F70892F805D8A3308F0895F8093C600D2
:10E430008091C00086FFFCCF8091C00080648093F3
:10E44000C000822F8F70982F905D9A3308F0995FEB
:10E450009093C6008091C00086FFFCCF8091C000E1
:10E4600080648093C00008959C01FB01853691056E
:10E470001CF46330710594F0C90164E670E00F94F8
:10E480002EFE605D7F4F6093C6008091C00086FFC6
:10E49000FCCF8091C00080648093C0002B30310598
:10E4A00014F43297B4F0C90164E670E00F942EFEC4
:10E4B0006AE070E00F942EFE605D7F4F6093C600AF
:10E4C0008091C00086FFFCCF8091C0008064809363
:10E4D000C000C9016AE070E00F942EFEC0968093E0
:10E4E000C6008091C00086FFFCCF8091C000806490
:10E4F0008093C00008951F93182F8EE692EE60E07F
:10E500000F94C2F11093C6008091C00086FFFCCF2B
:10E510008091C00080648093C0000F94DCF11F9153
:10E5200008952F923F924F925F926F927F928F92B7
:10E530009F92AF92BF92CF92DF92EF92FF920F9392
:10E540001F93DF93CF93CDB7DEB762970FB6F894E2
:10E55000DEBF0FBECDBF382E622ECA01DB015C01CB
:10E560006D01772420E2222E2E010894411C511CBB
:10E570008BC081E0A81680E0B80681E0C80680E084
:10E58000D80628F0C601AA27BB270F940DF2BB2797
:10E59000AD2D9C2D8B2D0F940DF28A2D0F940DF225
:10E5A0002092C6008091C00086FFFCCF8091C00001
:10E5B00080648093C0009DE29093C6008091C0006B
:10E5C00086FFFCCF8091C00080648093C0002092C1
:10E5D000C6008091C00086FFFCCF8091C00080649F
:10E5E0008093C00019828601750188249924A1E0D6
:10E5F0003A1651F03A1620F0B2E03B1661F409C029
:10E600000BBFF701779007C0C7010F9477FE782EF4
:10E6100002C0F7017080872D0F940DF22092C60082
:10E620008091C00086FFFCCF8091C0008064809301
:10E63000C000872D8052F401EF70F0708F3520F408
:10E64000E40DF51D708204C0E40DF51D8EE280839B
:10E650000894E11CF11C011D111D0894811C911CE2
:10E6600090E18916910409F0C2CF80E190E0A0E02A
:10E67000B0E0A80EB91ECA1EDB1E198AC2010F9493
:10E68000FAF10F94DCF16A94662009F072CF629679
:10E690000FB6F894DEBF0FBECDBFCF91DF911F91B3
:10E6A0000F91FF90EF90DF90CF90BF90AF909F9031
:10E6B0008F907F906F905F904F903F902F90089534
:10E6C0002F923F924F925F926F927F928F929F9282
:10E6D000AF92BF92CF92DF92EF92FF920F931F9370
:10E6E000DF93CF93CDB7DEB7CD53D1400FB6F894BB
:10E6F000DEBF0FBECDBF01E20EBF0FEF0DBF94B75F
:10E70000F894A89514BE80916000886180936000A1
:10E7100010926000789493FF05C0E0910002F091A0
:10E7200001021995279A2F9A8091C00082608093E8
:10E73000C00080E18093C40088E18093C1000000A4
:10E74000EE24FF24870144E0A42EB12CCC24DD2448
:10E7500024C0C5010197F1F70894E11CF11C011DCB
:10E76000111D21E2E2162EE4F20620E0020720E06D
:10E77000120718F031E0C32ED12CC801B70127ECE5
:10E780003BE140E050E00F9441FE611571058105C9
:10E79000910519F485B1805885B98091C00087FD35
:10E7A00003C0C114D104A9F2A6014F5F5F4FC25E3E
:10E7B000DE4F59834883CE51D140C25EDE4F8881FF
:10E7C0009981CE51D140019711F00D9410FEC05D9A
:10E7D000DE4F19821882C053D14060E0C15DDE4F28
:10E7E0001882CF52D14088249924C35DDE4F19820C
:10E7F0001882CD52D140C05EDE4F188219821A8233
:10E800001B82C052D140CE5CDE4F188219821A8220
:10E810001B82C253D140EE24FF2487010BBFF701B6
:10E8200007911691C45CDE4F19830883CC53D14005
:10E830000D940BFEC25EDE4F28813981CE51D1404E
:10E840002130310509F52091C600C25EDE4F1982E4
:10E850001882CE51D14022C02F5F3F4F4F4F5F4FA4
:10E86000213082E138078AE7480780E0580780F0C6
:10E87000C45CDE4FE881F981CC53D140EF5FFF4F9C
:10E8800019F0EE27FF27099420E030E040E050E047
:10E890008091C00087FFE0CF2091C600C35DDE4FAE
:10E8A00048815981CD52D1404F5F5F4FC35DDE4FEC
:10E8B00059834883CD52D140213209F063C64A3092
:10E8C000510508F05FC60894811C911C53E0851621
:10E8D000910409F059C600E010E018C081E280936D
:10E8E000C6008091C00086FFFCCF8091C00080648C
:10E8F0008093C0002F5F3F4F2931310579F70F9486
:10E90000DCF10F5F1F4F0530110519F020E030E0FA
:10E91000E5CF10920A0210920B0210920C02109294
:10E920000D02109206021092070210920802109235
:10E930000902109202021092030210920402109235
:10E9400005028FEE90EE60E00F94F5F180E191EE1C
:10E9500060E00F94C2F18091C00087FFFCCF9091DE
:10E96000C600903608F09F759032B8F09093C600BC
:10E970008091C00086FFFCCF8091C00080648093AE
:10E98000C000A0E2A093C6008091C00086FFFCCF2B
:10E990008091C00080648093C000983409F4D7C18E
:10E9A0009934B8F4923409F459C1933458F490333B
:10E9B00019F1903308F4E3C59F33A1F1903409F0C5
:10E9C000DEC5BDC0953409F470C1963409F0D7C5D1
:10E9D00098C1923509F42BC2933538F49C3409F46C
:10E9E000F5C1913509F0CBC518C2963509F445C279
:10E9F000993509F0C4C567C483E792EE62E00F94CD
:10EA0000F5F110920602109207021092080210927D
:10EA1000090210920A0210920B0210920C0210923C
:10EA20000D0213C18FE792EE62E00F94F5F18FEEC5
:10EA300090EE60E00F94F5F181E291EE60E00F94CA
:10EA4000C2F187EB91EE60E00F94F5F180E391EE77
:10EA500060E00F94C2F184EE90EE60E00F94F5F167
:10EA60008FE391EE60E00F94C2F186E090E061E008
:10EA700070E00F9434F20F94DCF18DE591EE60E0DC
:10EA80000F94C2F189EC91EE60E00F94F5F18EE401
:10EA900091EE60E00F94C2F183EC91EE60E00F9490
:10EAA000F5F18CE691EE60E00F94C2F18EE10F94E7
:10EAB0000DF288E90F940DF281E00F940DF20F949E
:10EAC000DCF18BE791EE60E00F94C2F119E0E0E039
:10EAD000F0E010935700E4918E2F0F940DF20F94F5
:10EAE000DCF18AE891EE60E00F94C2F1E3E0F0E03F
:10EAF00010935700E4918E2F0F940DF20F94DCF1D8
:10EB000089E991EE60E00F94C2F1E2E0F0E0109349
:10EB10005700E4918E2F0F940DF20F94DCF188EAE8
:10EB200091EE60E00F94C2F1E1E0F0E01093570045
:10EB30001491812F0F940DF20F94DCF107CF8BE825
:10EB400092EE62E00F94F5F18BE492EE60E00F94A8
:10EB5000F5F10F94DCF100E010E019C0C8016F2D51
:10EB60000F947FFEFF2031F489E492EE60E00F9471
:10EB7000C2F10BC0F092C6008091C00086FFFCCFAE
:10EB80008091C00080648093C0000F5F1F4FC80158
:10EB900081519F41A0E0B0E0ABBFFC01F790BAE229
:10EBA000FB1621F0E2E000301E07C1F60F94DCF105
:10EBB0000F94DCF187E592EE60E00F94F5F10F948D
:10EBC000DCF1CC24DD2400E010E01EC0C8010F946D
:10EBD00077FEF82E882331F489E492EE60E00F94FA
:10EBE000C2F10BC08093C6008091C00086FFFCCFAD
:10EBF0008091C00080648093C000FE1419F00894D6
:10EC0000C11CD11C0F5F1F4FC80181519F41A0E063
:10EC1000B0E0ABBFFC01E790FAE2EF1621F022E092
:10EC20000030120799F60F94DCF10F94DCF182E6C4
:10EC300092EE60E00F94C2F1C60161E070E00F94C3
:10EC400034F20F94DCF10F94DCF110920202109276
:10EC50000302109204021092050278CE89E992EE26
:10EC600062E00F94F5F1279A2F9A16C02F9880E052
:10EC700090E0E0EDF7E03197F1F7019684369105E9
:10EC8000C1F72F9A80E090E0E0EDF7E03197F1F7DF
:10EC9000019684369105C1F78091C00087FFE6CFC9
:10ECA0008091C00087FFFCCF64C485EA92EE62E0E9
:10ECB0000F94F5F140910202509103026091040219
:10ECC0007091050281E020E10F9491F2809102029F
:10ECD00090910302A0910402B091050280509F4FD1
:10ECE000AF4FBF4F8093020290930302A0930402A0
:10ECF000B093050280509041A040B04008F426CE69
:10ED0000A4CF83EB92EE62E00F94F5F140910602FE
:10ED100050910702609108027091090280E020E1A1
:10ED20000F9491F28091060290910702A09108023F
:10ED3000B091090280509F4FAF4FBF4F80930602A2
:10ED400090930702A0930802B0930902FFCD80ECD4
:10ED500092EE62E00F94F5F183E792EE60E00F949B
:10ED6000F5F18FE792EE60E00F94F5F18BE892EE0B
:10ED700060E00F94F5F189E992EE60E00F94F5F10F
:10ED800085EA92EE60E00F94F5F183EB92EE60E09D
:10ED90000F94F5F180EC92EE60E00F94F5F187ECC2
:10EDA00092EE60E00F94F5F188ED92EE60E00F9442
:10EDB000F5F18FED92EE60E00F94F5F18AEE92EEB0
:10EDC00060E00F94F5F183E093EEBDCD87EC92EE19
:10EDD00062E00F94F5F181E40F947BF282E40F94EA
:10EDE0007BF283E40F947BF284E40F947BF285E45E
:10EDF0000F947BF286E40F947BF287E40F947BF20E
:10EE000088E40F947BF28AE40F947BF28BE40F94F6
:10EE10007BF28CE40F947BF299CD88ED92EE62E068
:10EE20000F94F5F1772473948824992409C48FED05
:10EE300092EE62E00F94F5F140910A0250910B02BC
:10EE400060910C0270910D0282E020E10F9491F22A
:10EE500080910A0290910B02A0910C02B0910D02D8
:10EE600080509F4FAF4FBF4F80930A0290930B0289
:10EE7000A0930C02B0930D0269CD8AEE92EE62E08F
:10EE80000F94F5F184EE90EE60E00F94F5F18FECC5
:10EE900091EE60E00F94F5F1662477244301CC5D98
:10EEA000DE4F19821882C452D140D401C301B695F5
:10EEB000A79597958795CA5DDE4F88839983AA8326
:10EEC000BB83C652D140CC5DDE4FA881B981C4520C
:10EED000D1401196CC5DDE4FB983A883C452D14096
:10EEE000CD0162E070E00F9434F2B0E2B093C6005E
:10EEF0008091C00086FFFCCF8091C0008064809329
:10EF0000C000EDE2E093C6008091C00086FFFCCF18
:10EF10008091C00080648093C000F0E2F093C6004E
:10EF20008091C00086FFFCCF8091C00080648093F8
:10EF3000C000CA5DDE4FE880F9800A811B81C6529D
:10EF4000D140BB27A12F902F8F2D0F940DF2CA5DBA
:10EF5000DE4F8881C652D1400F940DF2B0E2FB2EF5
:10EF6000F092C6008091C00086FFFCCF8091C00067
:10EF700080648093C0000DE30093C6008091C000C0
:10EF800086FFFCCF8091C00080648093C00010E2B7
:10EF90001093C6008091C00086FFFCCF8091C00016
:10EFA00080648093C0008BBEF3012791C65DDE4F65
:10EFB0002883CA52D140A22EBB24CC24DD2408943D
:10EFC000611C711C811C911C8BBEF3018791282E42
:10EFD0003324442455240894611C711C811C911C09
:10EFE0008BBEF3013791C55DDE4F3883CB52D140E4
:10EFF0000894611C711C811C911C8BBEF30147910C
:10F00000C45DDE4F4883CC52D140ADEFEA2EAFEF66
:10F01000FA2EAFEF0A2FAFEF1A2F6E0C7F1C801E57
:10F02000911E142D032DF22CEE24EA0CFB1C0C1D5A
:10F030001D1D0F940DF220E22093C6008091C000A8
:10F0400086FFFCCF8091C00080648093C000C65DC5
:10F05000DE4F8881CA52D1400F940DF230E23093D6
:10F06000C6008091C00086FFFCCF8091C000806404
:10F070008093C000C45DDE4F8881CC52D1400F9494
:10F080000DF240E24093C6008091C00086FFFCCFA5
:10F090008091C00080648093C000C55DDE4F888190
:10F0A000CB52D1400F940DF250E25093C6008091A4
:10F0B000C00086FFFCCF8091C00080648093C000B8
:10F0C0008FEFE8168FEFF80680E0080780E018075A
:10F0D00031F484E092EE60E00F94C2F1DFC0D80119
:10F0E000C7018070907CA070B0708050904CA040A0
:10F0F000B040D1F52FEF3FE340E050E0E222F322B1
:10F1000004231523CA5DDE4FA880B980CA80DB8046
:10F11000C652D140AE0CBF1CC01ED11EAA0CBB1CD7
:10F12000CC1CDD1C8EE092EE60E00F94C2F1BB2798
:10F13000A12F902F8F2D0F940DF28E2D0F940DF285
:10F1400030E23093C6008091C00086FFFCCF8091F2
:10F15000C00080648093C0004EE34093C60080915D
:10F16000C00086FFFCCF87C08EE09EEFA0E0B0E03D
:10F17000E822F9220A231B239CE0E91694E9F90608
:10F1800090E0090790E0190709F088C0C45DDE4FE0
:10F19000A881CC52D140EA2EFF2400E010E0102FCD
:10F1A0000F2DFE2CEE24C55DDE4FB881CB52D14031
:10F1B000EB0EF11C011D111DD601C501817090706F
:10F1C000A070B070DC0199278827E80EF91E0A1F8D
:10F1D0001B1F20EF30E040E050E0A222B322C42207
:10F1E000D52241E1AA0CBB1CCC1CDD1C4A95D1F7F1
:10F1F000EA0CFB1C0C1D1D1D81E090E0A0E0B0E0BE
:10F20000282239224A225B2235E1220C331C441C7D
:10F21000551C3A95D1F7E20CF31C041D151D57013E
:10F220006801AA0CBB1CCC1CDD1C85E192EE60E0E1
:10F230000F94C2F1C801AA27BB270F940DF2BB2778
:10F24000A12F902F8F2D0F940DF28E2D0F940DF274
:10F2500090E29093C6008091C00086FFFCCF809121
:10F26000C00080648093C000AEE3A093C60080918C
:10F27000C00086FFFCCF8091C00080648093C000F6
:10F28000C601AA27BB270F940DF2BB27AD2D9C2DDD
:10F290008B2D0F940DF28A2D0F940DF20F94DCF14B
:10F2A000CC5DDE4FE881F981C452D140F99709F471
:10F2B0004DCBF4E0EF2EF12C012D112D6E0C7F1CA7
:10F2C000801E911EF2CD83E093EE62E00F94F5F183
:10F2D0008AE192EE60E00F94C2F18091C00087FF56
:10F2E000FCCF1091C6001F751093C6008091C0001E
:10F2F00086FFFCCF8091C00080648093C0000F9493
:10F30000DCF1812F81548A3108F036C1163409F4BA
:10F3100095C0173490F4133409F44EC0143430F40B
:10F320001134F1F0123409F01DC130C0143409F465
:10F3300059C0153409F016C16BC01A3409F4C4C0A1
:10F340001B3438F4173409F48FC0183409F00AC19B
:10F35000A1C01B3409F4D2C01C3409F003C1E8C0B9
:10F360008FEF81B90DC082B1809582B980E090E0C5
:10F37000E0EDF7E03197F1F70196883C9105C1F790
:10F380008091C00087FFEFCF12B8EFC08FEF84B934
:10F390000DC085B1809585B980E090E0E0EDF7E0A3
:10F3A0003197F1F70196883C9105C1F78091C00033
:10F3B00087FFEFCF15B8D9C08FEF87B90DC088B1DF
:10F3C000809588B980E090E0E0EDF7E03197F1F7C3
:10F3D0000196883C9105C1F78091C00087FFEFCF6F
:10F3E00018B8C3C08FEF8AB90DC08BB180958BB9A7
:10F3F00080E090E0E0EDF7E03197F1F70196883C8E
:10F400009105C1F78091C00087FFEFCF1BB8ADC059
:10F410008FEF8DB90DC08EB180958EB980E090E0F0
:10F42000E0EDF7E03197F1F70196883C9105C1F7DF
:10F430008091C00087FFEFCF1EB897C08FEF80BBD1
:10F440000DC081B3809581BB80E090E0E0EDF7E0F6
:10F450003197F1F70196883C9105C1F78091C00082
:10F4600087FFEFCF11BA81C08FEF83BB0DC084B38C
:10F47000809584BB80E090E0E0EDF7E03197F1F714
:10F480000196883C9105C1F78091C00087FFEFCFBE
:10F4900014BA6BC08FEF809301010FC080910201FD
:10F4A00080958093020180E090E0E0EDF7E03197F5
:10F4B000F1F70196883C9105C1F78091C00087FF64
:10F4C000EDCF1092020151C08FEF809304010FC065
:10F4D0008091050180958093050180E090E0E0ED4A
:10F4E000F7E03197F1F70196883C9105C1F78091DB
:10F4F000C00087FFEDCF1092050137C08FEF8093DA
:10F5000007010FC08091080180958093080180E079
:10F5100090E0E0EDF7E03197F1F70196883C910536
:10F52000C1F78091C00087FFEDCF109208011DC088
:10F530008FEF80930A010FC080910B01809580931B
:10F540000B0180E090E0E0EDF7E03197F1F70196F4
:10F55000883C9105C1F78091C00087FFEDCF1092E4
:10F560000B0103C085E292EEEEC98091C00087FFD7
:10F57000FCCF8091C600EAC988E392EEE4C98CE131
:10F5800091EEE1C988249924933011F1943028F444
:10F59000913089F09230B8F408C0953061F195301F
:10F5A000F0F0963009F048C043C02B3109F042C951
:10F5B00091E06BE13FC96227C15DDE4F2883CF52E6
:10F5C000D14092E037C9B22FA0E0622793E032C960
:10F5D000822F90E0A82BB92B622794E02BC92E3004
:10F5E00009F039C3622795E0C05DDE4F19821882A9
:10F5F000C053D1401FC9E1E0F0E0EC0FFD1FC05D3A
:10F60000DE4F08811981C053D140E00FF11F2083E4
:10F610000F5F1F4FC05DDE4F19830883C053D14079
:10F6200062270A171B0709F005C9D80196E002C92D
:10F63000261709F010C303C0973009F0FBC87724E0
:10F640009981933109F412C19431C8F4963009F4C8
:10F65000D8C0973050F4923009F406C1933009F4C1
:10F660006DC0913009F059C253C0913109F477C08F
:10F67000923108F0BBC0903109F04FC2F5C098310B
:10F6800009F487C0993150F4953109F4EFC09531F0
:10F6900008F4C6C1963109F040C2C2C19A3109F4DA
:10F6A0006CC09A3108F491C09B3109F45BC09D3164
:10F6B00009F033C29D81903359F48F81882311F46E
:10F6C0009EE11CC0813011F091E018C098E916C08D
:10F6D000892F807591F0903539F4E0E0F0E089E011
:10F6E0008093570094910AC0983539F4E3E0F0E034
:10F6F00089E080935700949101C090E01A821B82A8
:10F700008D818C831D829E831F8227E030E009C299
:10F710001A8288E08B8381E48C8386E58D8382E581
:10F720008E8389E48F8383E5888780E589878FE5E9
:10F730008A8782E38B872BE030E0F3C18A818139AD
:10F7400041F0823941F0803911F48FE005C080E04A
:10F7500003C082E001C08AE01A828B8344C0772410
:10F76000739482C08D81882311F48EE12CC0813086
:10F7700011F081E028C088E926C01A82E1E0F0E0BB
:10F7800089E08093570084918B831C8224E030E0D1
:10F79000C8C18B81803589F48C81883039F4E2E0EE
:10F7A000F0E089E08093570084910DC0E0E0F0E044
:10F7B00089E080935700849106C0E3E0F0E089E09F
:10F7C0008093570084911A82DFCF8D81836C99E0FA
:10F7D000E1E0F0E0082E90935700E89507B600FCB2
:10F7E000FDCF1A821B8223E030E09BC180EC8A832C
:10F7F000CE5CDE4F188219821A821B82C253D1401E
:10F800008EC18A8190E0A0E0B0E0582F44273327D2
:10F8100022278B8190E0A0E0B0E0DC0199278827C7
:10F82000282B392B4A2B5B2B8D8190E0A0E0B0E098
:10F83000282B392B4A2B5B2B8C8190E0A0E0B0E089
:10F84000BA2FA92F982F8827282B392B4A2B5B2BCF
:10F85000220F331F441F551FC05EDE4F288339839C
:10F860004A835B83C052D1401A8259C13A81C95C34
:10F87000DE4F3883C753D140CA5CDE4F1882C6536F
:10F88000D1408B81C82EDD24CA5CDE4F488159816E
:10F89000C653D140C42AD52A933109F082C0CE5C28
:10F8A000DE4F88819981AA81BB81C253D1408050AB
:10F8B000904CA340B04030F583E0CE5CDE4FE88052
:10F8C000F9800A811B81C253D140F70100935B008C
:10F8D00080935700E89507B600FCFDCFCE5CDE4F65
:10F8E000088119812A813B81C253D14000501F4FAA
:10F8F0002F4F3F4FCE5CDE4F088319832A833B8313
:10F90000C253D140C05EDE4F488159816A817B81FC
:10F91000C052D140DE011B9631E08C9111962C91A2
:10F9200011971296C75CDE4F2883C953D140C85C3B
:10F93000DE4F1882C853D14090E0C85CDE4FE881AA
:10F94000F981C853D1408E2B9F2B0C01FA01609393
:10F950005B0030935700E89511244E5F5F4F6F4F67
:10F960007F4F0EEFE02E0FEFF02ECE0CDF1CC114F8
:10F97000D10499F685E0C05EDE4F088119812A81A5
:10F980003B81C052D140F80120935B008093570027
:10F99000E89507B600FCFDCF81E180935700E8951C
:10F9A00035C0C05EDE4F88819981AA81BB81C0527B
:10F9B000D140B695A795979587957C018601ABE0D8
:10F9C000AA2EB12CAC0EBD1E0BC0D5016D915D01F0
:10F9D000C7010F947FFE0894E11CF11C01501040F8
:10F9E0000115110591F7A60160E070E0440F551F65
:10F9F000661F771FC05EDE4FE880F9800A811B8199
:10FA0000C052D1404E0D5F1D601F711F1A82C05E33
:10FA1000DE4F488359836A837B83C052D1407FC0C5
:10FA2000FA80C55CDE4FF882CB53D140C65CDE4F16
:10FA30001882CA53D1408B81C82EDD24C65CDE4FAC
:10FA400008811981CA53D140C02AD12A1A828981DA
:10FA5000BE016D5F7F4F843121F59601C05EDE4FA0
:10FA6000E880F9800A811B81C052D1400BBFF701A9
:10FA700087919691DB018C9311969C936E5F7F4FDB
:10FA8000D801C7010296A11DB11DC05EDE4F88835B
:10FA90009983AA83BB83C052D14022503040F1F6F3
:10FAA00036C0C05EDE4F288139814A815B81C052F9
:10FAB000D1400894C108D108760100E010E0089414
:10FAC000C11CD11C0894E11CF11C011D111DE20E8A
:10FAD000F31E041F151F21BDBB27A52F942F832FB5
:10FAE00082BD2F5F3F4F4F4F5F4FF89A80B5DB01CC
:10FAF0008D93BD012E153F054007510761F7C05E8C
:10FB0000DE4F288339834A835B83C052D1409601FC
:10FB10002D5F3F4FFB01108204C080EC8A8322E0FE
:10FB200030E08BE18093C6008091C00086FFFCCF5F
:10FB30008091C00080648093C000C15DDE4FF88179
:10FB4000CF52D140F093C6008091C00086FFFCCF19
:10FB50008091C00080648093C000432F3093C60022
:10FB60008091C00086FFFCCF8091C00080648093AC
:10FB7000C000922F2093C6008091C00086FFFCCF6A
:10FB80008091C00080648093C0008EE08093C600A6
:10FB90008091C00086FFFCCF8091C000806480937C
:10FBA000C00065E1C15DDE4FE880CF52D1406E25D7
:10FBB00069276427FE01319610C090819093C6009A
:10FBC0008091C00086FFFCCF31968091C000806498
:10FBD0008093C0006927215030402115310569F715
:10FBE0006093C6008091C00086FFFCCF8091C0006A
:10FBF00080648093C00085B1805885B9772081F4F6
:10FC0000C15DDE4F0881CF52D1400F5FC15DDE4F35
:10FC10000883CF52D14090E0A0E0B0E00D941AF4F8
:10FC200027982F9880E090E020ED37E0F901319798
:10FC3000F1F7019684369105C9F700008091C00064
:10FC40008D7F8093C00081E180935700E895EE2777
:10FC5000FF270994FFCF90E00D941AF497FB092E2B
:10FC600007260AD077FD04D02ED006D000201AF443
:10FC7000709561957F4F0895F6F7909581959F4F08
:10FC80000895A1E21A2EAA1BBB1BFD010DC0AA1FDD
:10FC9000BB1FEE1FFF1FA217B307E407F50720F0F5
:10FCA000A21BB30BE40BF50B661F771F881F991F70
:10FCB0001A9469F760957095809590959B01AC01B9
:10FCC000BD01CF010895AA1BBB1B51E107C0AA1FAC
:10FCD000BB1FA617B70710F0A61BB70B881F991FED
:10FCE0005A95A9F780959095BC01CD010895F99991
:10FCF000FECF92BD81BDF89A992780B50895262F31
:10FD0000F999FECF1FBA92BD81BD20BD0FB6F89400
:0EFD1000FA9AF99A0FBE01960895F894FFCF63
:040000033000E000E9
:00000001FF
